{
  "_format": "hh-sol-artifact-1",
  "contractName": "CustomeERC20",
  "sourceName": "contracts/CustomeERC20.sol",
  "abi": [
    {
      "inputs": [
        {
          "internalType": "string",
          "name": "_name",
          "type": "string"
        },
        {
          "internalType": "string",
          "name": "_symbol",
          "type": "string"
        },
        {
          "internalType": "uint256",
          "name": "_totalSupply",
          "type": "uint256"
        },
        {
          "internalType": "uint256",
          "name": "_decimal",
          "type": "uint256"
        }
      ],
      "stateMutability": "nonpayable",
      "type": "constructor"
    },
    {
      "inputs": [
        {
          "internalType": "address",
          "name": "",
          "type": "address"
        }
      ],
      "name": "balance",
      "outputs": [
        {
          "internalType": "uint256",
          "name": "",
          "type": "uint256"
        }
      ],
      "stateMutability": "view",
      "type": "function"
    },
    {
      "inputs": [
        {
          "internalType": "address",
          "name": "_tokenOwner",
          "type": "address"
        }
      ],
      "name": "balanceOf",
      "outputs": [
        {
          "internalType": "uint256",
          "name": "",
          "type": "uint256"
        }
      ],
      "stateMutability": "view",
      "type": "function"
    },
    {
      "inputs": [],
      "name": "decimal",
      "outputs": [
        {
          "internalType": "uint256",
          "name": "",
          "type": "uint256"
        }
      ],
      "stateMutability": "view",
      "type": "function"
    },
    {
      "inputs": [],
      "name": "name",
      "outputs": [
        {
          "internalType": "string",
          "name": "",
          "type": "string"
        }
      ],
      "stateMutability": "view",
      "type": "function"
    },
    {
      "inputs": [],
      "name": "owner",
      "outputs": [
        {
          "internalType": "address",
          "name": "",
          "type": "address"
        }
      ],
      "stateMutability": "view",
      "type": "function"
    },
    {
      "inputs": [],
      "name": "symbol",
      "outputs": [
        {
          "internalType": "string",
          "name": "",
          "type": "string"
        }
      ],
      "stateMutability": "view",
      "type": "function"
    },
    {
      "inputs": [],
      "name": "tokenFaucet",
      "outputs": [],
      "stateMutability": "nonpayable",
      "type": "function"
    },
    {
      "inputs": [],
      "name": "totalSupply",
      "outputs": [
        {
          "internalType": "uint256",
          "name": "",
          "type": "uint256"
        }
      ],
      "stateMutability": "view",
      "type": "function"
    },
    {
      "inputs": [
        {
          "internalType": "address",
          "name": "_to",
          "type": "address"
        },
        {
          "internalType": "uint256",
          "name": "_amount",
          "type": "uint256"
        }
      ],
      "name": "transfer",
      "outputs": [
        {
          "internalType": "bool",
          "name": "success",
          "type": "bool"
        }
      ],
      "stateMutability": "nonpayable",
      "type": "function"
    }
  ],
  "bytecode": "0x60806040523480156200001157600080fd5b5060405162001298380380620012988339818101604052810190620000379190620003cd565b336000806101000a81548173ffffffffffffffffffffffffffffffffffffffff021916908373ffffffffffffffffffffffffffffffffffffffff16021790555083600190805190602001906200008f92919062000145565b508260029080519060200190620000a892919062000145565b5080600381905550600354600a620000c1919062000600565b82620000ce919062000651565b600481905550600454600560008060009054906101000a900473ffffffffffffffffffffffffffffffffffffffff1673ffffffffffffffffffffffffffffffffffffffff1673ffffffffffffffffffffffffffffffffffffffff168152602001908152602001600020819055505050505062000717565b8280546200015390620006e1565b90600052602060002090601f016020900481019282620001775760008555620001c3565b82601f106200019257805160ff1916838001178555620001c3565b82800160010185558215620001c3579182015b82811115620001c2578251825591602001919060010190620001a5565b5b509050620001d29190620001d6565b5090565b5b80821115620001f1576000816000905550600101620001d7565b5090565b6000604051905090565b600080fd5b600080fd5b600080fd5b600080fd5b6000601f19601f8301169050919050565b7f4e487b7100000000000000000000000000000000000000000000000000000000600052604160045260246000fd5b6200025e8262000213565b810181811067ffffffffffffffff8211171562000280576200027f62000224565b5b80604052505050565b600062000295620001f5565b9050620002a3828262000253565b919050565b600067ffffffffffffffff821115620002c657620002c562000224565b5b620002d18262000213565b9050602081019050919050565b60005b83811015620002fe578082015181840152602081019050620002e1565b838111156200030e576000848401525b50505050565b60006200032b6200032584620002a8565b62000289565b9050828152602081018484840111156200034a57620003496200020e565b5b62000357848285620002de565b509392505050565b600082601f83011262000377576200037662000209565b5b81516200038984826020860162000314565b91505092915050565b6000819050919050565b620003a78162000392565b8114620003b357600080fd5b50565b600081519050620003c7816200039c565b92915050565b60008060008060808587031215620003ea57620003e9620001ff565b5b600085015167ffffffffffffffff8111156200040b576200040a62000204565b5b62000419878288016200035f565b945050602085015167ffffffffffffffff8111156200043d576200043c62000204565b5b6200044b878288016200035f565b93505060406200045e87828801620003b6565b92505060606200047187828801620003b6565b91505092959194509250565b7f4e487b7100000000000000000000000000000000000000000000000000000000600052601160045260246000fd5b60008160011c9050919050565b6000808291508390505b60018511156200050b57808604811115620004e357620004e26200047d565b5b6001851615620004f35780820291505b80810290506200050385620004ac565b9450620004c3565b94509492505050565b600082620005265760019050620005f9565b81620005365760009050620005f9565b81600181146200054f57600281146200055a5762000590565b6001915050620005f9565b60ff8411156200056f576200056e6200047d565b5b8360020a9150848211156200058957620005886200047d565b5b50620005f9565b5060208310610133831016604e8410600b8410161715620005ca5782820a905083811115620005c457620005c36200047d565b5b620005f9565b620005d98484846001620004b9565b92509050818404811115620005f357620005f26200047d565b5b81810290505b9392505050565b60006200060d8262000392565b91506200061a8362000392565b9250620006497fffffffffffffffffffffffffffffffffffffffffffffffffffffffffffffffff848462000514565b905092915050565b60006200065e8262000392565b91506200066b8362000392565b9250817fffffffffffffffffffffffffffffffffffffffffffffffffffffffffffffffff0483118215151615620006a757620006a66200047d565b5b828202905092915050565b7f4e487b7100000000000000000000000000000000000000000000000000000000600052602260045260246000fd5b60006002820490506001821680620006fa57607f821691505b60208210811415620007115762000710620006b2565b5b50919050565b610b7180620007276000396000f3fe608060405234801561001057600080fd5b50600436106100935760003560e01c806389eb068a1161006657806389eb068a146101225780638da5cb5b1461012c57806395d89b411461014a578063a9059cbb14610168578063e3d670d71461019857610093565b806306fdde031461009857806318160ddd146100b657806370a08231146100d457806376809ce314610104575b600080fd5b6100a06101c8565b6040516100ad919061072b565b60405180910390f35b6100be610256565b6040516100cb9190610766565b60405180910390f35b6100ee60048036038101906100e991906107e4565b61025c565b6040516100fb9190610766565b60405180910390f35b61010c6102a5565b6040516101199190610766565b60405180910390f35b61012a6102ab565b005b61013461048e565b6040516101419190610820565b60405180910390f35b6101526104b2565b60405161015f919061072b565b60405180910390f35b610182600480360381019061017d9190610867565b610540565b60405161018f91906108c2565b60405180910390f35b6101b260048036038101906101ad91906107e4565b61067a565b6040516101bf9190610766565b60405180910390f35b600180546101d59061090c565b80601f01602080910402602001604051908101604052809291908181526020018280546102019061090c565b801561024e5780601f106102235761010080835404028352916020019161024e565b820191906000526020600020905b81548152906001019060200180831161023157829003601f168201915b505050505081565b60045481565b6000600560008373ffffffffffffffffffffffffffffffffffffffff1673ffffffffffffffffffffffffffffffffffffffff168152602001908152602001600020549050919050565b60035481565b60008054906101000a900473ffffffffffffffffffffffffffffffffffffffff1673ffffffffffffffffffffffffffffffffffffffff163373ffffffffffffffffffffffffffffffffffffffff16141561033a576040517f08c379a00000000000000000000000000000000000000000000000000000000081526004016103319061098a565b60405180910390fd5b600a600560003373ffffffffffffffffffffffffffffffffffffffff1673ffffffffffffffffffffffffffffffffffffffff1681526020019081526020016000205411156103bd576040517f08c379a00000000000000000000000000000000000000000000000000000000081526004016103b4906109f6565b60405180910390fd5b600a600560008060009054906101000a900473ffffffffffffffffffffffffffffffffffffffff1673ffffffffffffffffffffffffffffffffffffffff1673ffffffffffffffffffffffffffffffffffffffff168152602001908152602001600020600082825461042e9190610a45565b92505081905550600a600560003373ffffffffffffffffffffffffffffffffffffffff1673ffffffffffffffffffffffffffffffffffffffff16815260200190815260200160002060008282546104859190610a79565b92505081905550565b60008054906101000a900473ffffffffffffffffffffffffffffffffffffffff1681565b600280546104bf9061090c565b80601f01602080910402602001604051908101604052809291908181526020018280546104eb9061090c565b80156105385780601f1061050d57610100808354040283529160200191610538565b820191906000526020600020905b81548152906001019060200180831161051b57829003601f168201915b505050505081565b600081600560003373ffffffffffffffffffffffffffffffffffffffff1673ffffffffffffffffffffffffffffffffffffffff1681526020019081526020016000205410156105c4576040517f08c379a00000000000000000000000000000000000000000000000000000000081526004016105bb90610b1b565b60405180910390fd5b81600560003373ffffffffffffffffffffffffffffffffffffffff1673ffffffffffffffffffffffffffffffffffffffff16815260200190815260200160002060008282546106139190610a45565b9250508190555081600560008573ffffffffffffffffffffffffffffffffffffffff1673ffffffffffffffffffffffffffffffffffffffff16815260200190815260200160002060008282546106699190610a79565b925050819055506001905092915050565b60056020528060005260406000206000915090505481565b600081519050919050565b600082825260208201905092915050565b60005b838110156106cc5780820151818401526020810190506106b1565b838111156106db576000848401525b50505050565b6000601f19601f8301169050919050565b60006106fd82610692565b610707818561069d565b93506107178185602086016106ae565b610720816106e1565b840191505092915050565b6000602082019050818103600083015261074581846106f2565b905092915050565b6000819050919050565b6107608161074d565b82525050565b600060208201905061077b6000830184610757565b92915050565b600080fd5b600073ffffffffffffffffffffffffffffffffffffffff82169050919050565b60006107b182610786565b9050919050565b6107c1816107a6565b81146107cc57600080fd5b50565b6000813590506107de816107b8565b92915050565b6000602082840312156107fa576107f9610781565b5b6000610808848285016107cf565b91505092915050565b61081a816107a6565b82525050565b60006020820190506108356000830184610811565b92915050565b6108448161074d565b811461084f57600080fd5b50565b6000813590506108618161083b565b92915050565b6000806040838503121561087e5761087d610781565b5b600061088c858286016107cf565b925050602061089d85828601610852565b9150509250929050565b60008115159050919050565b6108bc816108a7565b82525050565b60006020820190506108d760008301846108b3565b92915050565b7f4e487b7100000000000000000000000000000000000000000000000000000000600052602260045260246000fd5b6000600282049050600182168061092457607f821691505b60208210811415610938576109376108dd565b5b50919050565b7f4f776e65722063616e27742063616c6c20746869732066756e6374696f6e0000600082015250565b6000610974601e8361069d565b915061097f8261093e565b602082019050919050565b600060208201905081810360008301526109a381610967565b9050919050565b7f446f6e2774206265206772656564790000000000000000000000000000000000600082015250565b60006109e0600f8361069d565b91506109eb826109aa565b602082019050919050565b60006020820190508181036000830152610a0f816109d3565b9050919050565b7f4e487b7100000000000000000000000000000000000000000000000000000000600052601160045260246000fd5b6000610a508261074d565b9150610a5b8361074d565b925082821015610a6e57610a6d610a16565b5b828203905092915050565b6000610a848261074d565b9150610a8f8361074d565b9250827fffffffffffffffffffffffffffffffffffffffffffffffffffffffffffffffff03821115610ac457610ac3610a16565b5b828201905092915050565b7f596f7520646f6e2774206861766520656e6f75676820746f6b656e0000000000600082015250565b6000610b05601b8361069d565b9150610b1082610acf565b602082019050919050565b60006020820190508181036000830152610b3481610af8565b905091905056fea26469706673582212207bedc33190b680e3fb507c84f29d037f64166869434fb0705ecc38f63ee167cd64736f6c63430008090033",
  "linkReferences": {},
  "deployedLinkReferences": {}
}