{
  "_format": "hh-sol-artifact-1",
  "contractName": "CustomeERC20",
  "sourceName": "contracts/CustomeERC20.sol",
  "abi": [
    {
      "inputs": [
        {
          "internalType": "string",
          "name": "_name",
          "type": "string"
        },
        {
          "internalType": "string",
          "name": "_symbol",
          "type": "string"
        },
        {
          "internalType": "uint256",
          "name": "_totalSupply",
          "type": "uint256"
        },
        {
          "internalType": "uint256",
          "name": "_decimal",
          "type": "uint256"
        }
      ],
      "stateMutability": "nonpayable",
      "type": "constructor"
    },
    {
      "inputs": [
        {
          "internalType": "address",
          "name": "",
          "type": "address"
        }
      ],
      "name": "balance",
      "outputs": [
        {
          "internalType": "uint256",
          "name": "",
          "type": "uint256"
        }
      ],
      "stateMutability": "view",
      "type": "function"
    },
    {
      "inputs": [],
      "name": "decimal",
      "outputs": [
        {
          "internalType": "uint256",
          "name": "",
          "type": "uint256"
        }
      ],
      "stateMutability": "view",
      "type": "function"
    },
    {
      "inputs": [],
      "name": "name",
      "outputs": [
        {
          "internalType": "string",
          "name": "",
          "type": "string"
        }
      ],
      "stateMutability": "view",
      "type": "function"
    },
    {
      "inputs": [],
      "name": "owner",
      "outputs": [
        {
          "internalType": "address",
          "name": "",
          "type": "address"
        }
      ],
      "stateMutability": "view",
      "type": "function"
    },
    {
      "inputs": [],
      "name": "showBalance",
      "outputs": [
        {
          "internalType": "uint256",
          "name": "",
          "type": "uint256"
        }
      ],
      "stateMutability": "view",
      "type": "function"
    },
    {
      "inputs": [],
      "name": "symbol",
      "outputs": [
        {
          "internalType": "string",
          "name": "",
          "type": "string"
        }
      ],
      "stateMutability": "view",
      "type": "function"
    },
    {
      "inputs": [],
      "name": "tokenFaucet",
      "outputs": [],
      "stateMutability": "nonpayable",
      "type": "function"
    },
    {
      "inputs": [],
      "name": "totalSupply",
      "outputs": [
        {
          "internalType": "uint256",
          "name": "",
          "type": "uint256"
        }
      ],
      "stateMutability": "view",
      "type": "function"
    },
    {
      "inputs": [
        {
          "internalType": "address",
          "name": "_to",
          "type": "address"
        },
        {
          "internalType": "uint256",
          "name": "_amount",
          "type": "uint256"
        }
      ],
      "name": "transferToken",
      "outputs": [
        {
          "internalType": "bool",
          "name": "success",
          "type": "bool"
        }
      ],
      "stateMutability": "nonpayable",
      "type": "function"
    }
  ],
  "bytecode": "0x60806040523480156200001157600080fd5b506040516200143c3803806200143c833981810160405281019062000037919062000305565b336000806101000a81548173ffffffffffffffffffffffffffffffffffffffff021916908373ffffffffffffffffffffffffffffffffffffffff1602179055508360019081620000889190620005f6565b5082600290816200009a9190620005f6565b5080600381905550600354600a620000b3919062000860565b82620000c09190620008b1565b600481905550600454600560008060009054906101000a900473ffffffffffffffffffffffffffffffffffffffff1673ffffffffffffffffffffffffffffffffffffffff1673ffffffffffffffffffffffffffffffffffffffff1681526020019081526020016000208190555050505050620008fc565b6000604051905090565b600080fd5b600080fd5b600080fd5b600080fd5b6000601f19601f8301169050919050565b7f4e487b7100000000000000000000000000000000000000000000000000000000600052604160045260246000fd5b620001a08262000155565b810181811067ffffffffffffffff82111715620001c257620001c162000166565b5b80604052505050565b6000620001d762000137565b9050620001e5828262000195565b919050565b600067ffffffffffffffff82111562000208576200020762000166565b5b620002138262000155565b9050602081019050919050565b60005b838110156200024057808201518184015260208101905062000223565b60008484015250505050565b6000620002636200025d84620001ea565b620001cb565b90508281526020810184848401111562000282576200028162000150565b5b6200028f84828562000220565b509392505050565b600082601f830112620002af57620002ae6200014b565b5b8151620002c18482602086016200024c565b91505092915050565b6000819050919050565b620002df81620002ca565b8114620002eb57600080fd5b50565b600081519050620002ff81620002d4565b92915050565b6000806000806080858703121562000322576200032162000141565b5b600085015167ffffffffffffffff81111562000343576200034262000146565b5b620003518782880162000297565b945050602085015167ffffffffffffffff81111562000375576200037462000146565b5b620003838782880162000297565b93505060406200039687828801620002ee565b9250506060620003a987828801620002ee565b91505092959194509250565b600081519050919050565b7f4e487b7100000000000000000000000000000000000000000000000000000000600052602260045260246000fd5b600060028204905060018216806200040857607f821691505b6020821081036200041e576200041d620003c0565b5b50919050565b60008190508160005260206000209050919050565b60006020601f8301049050919050565b600082821b905092915050565b600060088302620004887fffffffffffffffffffffffffffffffffffffffffffffffffffffffffffffffff8262000449565b62000494868362000449565b95508019841693508086168417925050509392505050565b6000819050919050565b6000620004d7620004d1620004cb84620002ca565b620004ac565b620002ca565b9050919050565b6000819050919050565b620004f383620004b6565b6200050b6200050282620004de565b84845462000456565b825550505050565b600090565b6200052262000513565b6200052f818484620004e8565b505050565b5b8181101562000557576200054b60008262000518565b60018101905062000535565b5050565b601f821115620005a657620005708162000424565b6200057b8462000439565b810160208510156200058b578190505b620005a36200059a8562000439565b83018262000534565b50505b505050565b600082821c905092915050565b6000620005cb60001984600802620005ab565b1980831691505092915050565b6000620005e68383620005b8565b9150826002028217905092915050565b6200060182620003b5565b67ffffffffffffffff8111156200061d576200061c62000166565b5b620006298254620003ef565b620006368282856200055b565b600060209050601f8311600181146200066e576000841562000659578287015190505b620006658582620005d8565b865550620006d5565b601f1984166200067e8662000424565b60005b82811015620006a85784890151825560018201915060208501945060208101905062000681565b86831015620006c85784890151620006c4601f891682620005b8565b8355505b6001600288020188555050505b505050505050565b7f4e487b7100000000000000000000000000000000000000000000000000000000600052601160045260246000fd5b60008160011c9050919050565b6000808291508390505b60018511156200076b57808604811115620007435762000742620006dd565b5b6001851615620007535780820291505b808102905062000763856200070c565b945062000723565b94509492505050565b60008262000786576001905062000859565b8162000796576000905062000859565b8160018114620007af5760028114620007ba57620007f0565b600191505062000859565b60ff841115620007cf57620007ce620006dd565b5b8360020a915084821115620007e957620007e8620006dd565b5b5062000859565b5060208310610133831016604e8410600b84101617156200082a5782820a905083811115620008245762000823620006dd565b5b62000859565b62000839848484600162000719565b92509050818404811115620008535762000852620006dd565b5b81810290505b9392505050565b60006200086d82620002ca565b91506200087a83620002ca565b9250620008a97fffffffffffffffffffffffffffffffffffffffffffffffffffffffffffffffff848462000774565b905092915050565b6000620008be82620002ca565b9150620008cb83620002ca565b9250828202620008db81620002ca565b91508282048414831517620008f557620008f4620006dd565b5b5092915050565b610b30806200090c6000396000f3fe608060405234801561001057600080fd5b50600436106100935760003560e01c806381b2d07b1161006657806381b2d07b1461012257806389eb068a146101405780638da5cb5b1461014a57806395d89b4114610168578063e3d670d71461018657610093565b806306fdde03146100985780631072cbea146100b657806318160ddd146100e657806376809ce314610104575b600080fd5b6100a06101b6565b6040516100ad919061070d565b60405180910390f35b6100d060048036038101906100cb91906107c8565b610244565b6040516100dd9190610823565b60405180910390f35b6100ee61037e565b6040516100fb919061084d565b60405180910390f35b61010c610384565b604051610119919061084d565b60405180910390f35b61012a61038a565b604051610137919061084d565b60405180910390f35b6101486103d1565b005b6101526105b3565b60405161015f9190610877565b60405180910390f35b6101706105d7565b60405161017d919061070d565b60405180910390f35b6101a0600480360381019061019b9190610892565b610665565b6040516101ad919061084d565b60405180910390f35b600180546101c3906108ee565b80601f01602080910402602001604051908101604052809291908181526020018280546101ef906108ee565b801561023c5780601f106102115761010080835404028352916020019161023c565b820191906000526020600020905b81548152906001019060200180831161021f57829003601f168201915b505050505081565b600081600560003373ffffffffffffffffffffffffffffffffffffffff1673ffffffffffffffffffffffffffffffffffffffff1681526020019081526020016000205410156102c8576040517f08c379a00000000000000000000000000000000000000000000000000000000081526004016102bf9061096b565b60405180910390fd5b81600560003373ffffffffffffffffffffffffffffffffffffffff1673ffffffffffffffffffffffffffffffffffffffff168152602001908152602001600020600082825461031791906109ba565b9250508190555081600560008573ffffffffffffffffffffffffffffffffffffffff1673ffffffffffffffffffffffffffffffffffffffff168152602001908152602001600020600082825461036d91906109ee565b925050819055506001905092915050565b60045481565b60035481565b6000600560003373ffffffffffffffffffffffffffffffffffffffff1673ffffffffffffffffffffffffffffffffffffffff16815260200190815260200160002054905090565b60008054906101000a900473ffffffffffffffffffffffffffffffffffffffff1673ffffffffffffffffffffffffffffffffffffffff163373ffffffffffffffffffffffffffffffffffffffff160361045f576040517f08c379a000000000000000000000000000000000000000000000000000000000815260040161045690610a6e565b60405180910390fd5b600a600560003373ffffffffffffffffffffffffffffffffffffffff1673ffffffffffffffffffffffffffffffffffffffff1681526020019081526020016000205411156104e2576040517f08c379a00000000000000000000000000000000000000000000000000000000081526004016104d990610ada565b60405180910390fd5b600a600560008060009054906101000a900473ffffffffffffffffffffffffffffffffffffffff1673ffffffffffffffffffffffffffffffffffffffff1673ffffffffffffffffffffffffffffffffffffffff168152602001908152602001600020600082825461055391906109ba565b92505081905550600a600560003373ffffffffffffffffffffffffffffffffffffffff1673ffffffffffffffffffffffffffffffffffffffff16815260200190815260200160002060008282546105aa91906109ee565b92505081905550565b60008054906101000a900473ffffffffffffffffffffffffffffffffffffffff1681565b600280546105e4906108ee565b80601f0160208091040260200160405190810160405280929190818152602001828054610610906108ee565b801561065d5780601f106106325761010080835404028352916020019161065d565b820191906000526020600020905b81548152906001019060200180831161064057829003601f168201915b505050505081565b60056020528060005260406000206000915090505481565b600081519050919050565b600082825260208201905092915050565b60005b838110156106b757808201518184015260208101905061069c565b60008484015250505050565b6000601f19601f8301169050919050565b60006106df8261067d565b6106e98185610688565b93506106f9818560208601610699565b610702816106c3565b840191505092915050565b6000602082019050818103600083015261072781846106d4565b905092915050565b600080fd5b600073ffffffffffffffffffffffffffffffffffffffff82169050919050565b600061075f82610734565b9050919050565b61076f81610754565b811461077a57600080fd5b50565b60008135905061078c81610766565b92915050565b6000819050919050565b6107a581610792565b81146107b057600080fd5b50565b6000813590506107c28161079c565b92915050565b600080604083850312156107df576107de61072f565b5b60006107ed8582860161077d565b92505060206107fe858286016107b3565b9150509250929050565b60008115159050919050565b61081d81610808565b82525050565b60006020820190506108386000830184610814565b92915050565b61084781610792565b82525050565b6000602082019050610862600083018461083e565b92915050565b61087181610754565b82525050565b600060208201905061088c6000830184610868565b92915050565b6000602082840312156108a8576108a761072f565b5b60006108b68482850161077d565b91505092915050565b7f4e487b7100000000000000000000000000000000000000000000000000000000600052602260045260246000fd5b6000600282049050600182168061090657607f821691505b602082108103610919576109186108bf565b5b50919050565b7f596f7520646f6e2774206861766520656e6f75676820746f6b656e0000000000600082015250565b6000610955601b83610688565b91506109608261091f565b602082019050919050565b6000602082019050818103600083015261098481610948565b9050919050565b7f4e487b7100000000000000000000000000000000000000000000000000000000600052601160045260246000fd5b60006109c582610792565b91506109d083610792565b92508282039050818111156109e8576109e761098b565b5b92915050565b60006109f982610792565b9150610a0483610792565b9250828201905080821115610a1c57610a1b61098b565b5b92915050565b7f4f776e65722063616e27742063616c6c20746869732066756e6374696f6e0000600082015250565b6000610a58601e83610688565b9150610a6382610a22565b602082019050919050565b60006020820190508181036000830152610a8781610a4b565b9050919050565b7f446f6e2774206265206772656564790000000000000000000000000000000000600082015250565b6000610ac4600f83610688565b9150610acf82610a8e565b602082019050919050565b60006020820190508181036000830152610af381610ab7565b905091905056fea26469706673582212201c75b5b9e0b3ca70e567c2a689e7d8011e1fbe1283afc51f2942f2dfd0781d2064736f6c63430008110033",
  "linkReferences": {},
  "deployedLinkReferences": {}
}